:1000000080317228080008007E1480318B1D092879
:100010000A2812280B1C0D280E2812288F317A2747
:10002000803170280B1F1528162870282100111EFA
:100030001A281B2827282000111E1F2820282728BF
:10004000210051088A0050080A00803170282100E0
:10005000911E2B282C2838282000911E302831286A
:10006000382821004F088A004E080A008031702885
:100070002100121F3C283D2846282000121F41283D
:10008000422846288E316526803170282100921E34
:100090004A284B2854282000921E4F2850285428C4
:1000A0008E316226803170282100931C58285928EF
:1000B00062282000931C5D285E2862288F316B2700
:1000C000803170282100911C662867287028200044
:1000D000911C6B286C2870288F3123278031702861
:1000E0007E10090080317428FD013E30840000300C
:1000F00085001D308E318F268031A0308400003085
:10010000850018308E318F2680317E10200080319E
:10011000892887315E2780318B11D7302000AE00CF
:100120000330AF008E31E32680318B170B178E31F1
:10013000F62680318E31A4268031003A0319A12899
:10014000A228F3285A302000AF005930B000873180
:100150003027803120002F083004031DB028B1283B
:10016000F3285A08D03E2100C000FF3003180030A9
:10017000C10020005908D03E2100C200FF30031802
:100180000030C300C11BC528C628DA284108803AC0
:10019000BA0080303A02031DCF2804304002031811
:1001A000D228D328DA28210040083E3E8600870165
:1001B000013081002100C31BDE28DF28F32843081B
:1001C000803ABA0080303A02031DE8280430420227
:1001D0000318EB28EC28F328210042083E3E860055
:1001E0008701013081008631522680319B2983317D
:1001F0002523803120002F082100C50020002E0873
:100200002100C400440A031D0A29450A03190929CB
:100210000A29332944082000D1005108500203184C
:10022000122913291A298F313F27803101302000EC
:10023000CF00B6295008510203181F292029272969
:100240008F313127803102302000CF00B6292100C4
:1002500044083E3E86008701810103302000CF0024
:10026000C401C501B62920005008031938293929CD
:10027000B6290130BE00B629200050085106031DE2
:10028000422943294D298E31F6268031200050081D
:100290003E3E8600870181012D298331252380314F
:1002A00020002F082100BF0020002E082100BE00E2
:1002B0003E0A031D60293F0A03195F296029B629F8
:1002C0003E082000D100B62901302000C4070030CC
:1002D000C53D00304502C83003194402031C712992
:1002E0007229B62983312523803120002F0821006F
:1002F000BD0020002E082100BC003C0A031D8529FA
:100300003D0A031984298529892904302000CF005A
:1003100030292000CF01B62901302000C407003069
:10032000C53D00304502323003194402031C9929AF
:100330009A29B629892920004F082100BA00BB015B
:100340003B08003A0319A529B6293A08003A0319CF
:10035000F728013A03193C29033A03193C29013AC9
:1003600003196429073A03198C29B62901302000A2
:10037000C6070030C73D003047021E300319460251
:10038000031CC329C429CD298131D921803184316D
:10039000802480312000C601C7011A302100BA0034
:1003A000F830890BD129BA0BD12900009A28803165
:1003B0007228243087318627813120005008303E52
:1003C00087318627813120005108303E87318627CA
:1003D000813120004E08303E8731862781316430DC
:1003E0002000B4000030B5004D08BC00BD013C0841
:1003F000B6003D08B70085310A2581312000340858
:10040000303E8731862781310A302000B400003029
:10041000B5004D08BC00BD013C08B0003D08B1006E
:100420006430AE000030AF008531BE258131200040
:100430002F08B7002E08B60085310A25813120002B
:100440003408303E87318627813120004D08BC00BA
:10045000BD013C08B0003D08B1006430AE00003082
:10046000AF008531BE25813120002F082100B90061
:1004700020002E082100B8000A302000AE00003015
:10048000AF00210039082000B10021003808200009
:10049000B0008531BE25813120002E08303E8731E5
:1004A0008627813164302000B4000030B5004C084C
:1004B000BC00BD013C08B6003D08B70085310A25E7
:1004C000813120003408303E8731862781310A305F
:1004D0002000B4000030B5004C08BC00BD013C0851
:1004E000B0003D08B1006430AE000030AF0085318F
:1004F000BE25813120002F08B7002E08B6008531B7
:100500000A25813120003408303E87318627813129
:100510002E3087318627813120004C08BC00BD0178
:100520003C08B0003D08B1006430AE000030AF00C0
:100530008531BE25813120002F082100B90020001F
:100540002E082100B8000A302000AE000030AF00B5
:10055000210039082000B100210038082000B00037
:100560008531BE25813120002E08303E8731862717
:10057000813164302000B4000030B5004B08BC006D
:10058000BD013C08B6003D08B70085310A25813120
:1005900020003408303E8731862781310A30200020
:1005A000B4000030B5004B08BC00BD013C08B000F1
:1005B0003D08B1006430AE000030AF008531BE258B
:1005C000813120002F08B7002E08B60085310A259A
:1005D000813120003408303E8731862781312E302A
:1005E00087318627813120004B08BC00BD013C08C3
:1005F000B0003D08B1006430AE000030AF0085317E
:10060000BE25813120002F082100B90020002E08CE
:100610002100B8000A302000AE000030AF002100F9
:1006200039082000B100210038082000B0008531D1
:10063000BE25813120002E08303E8731862781314A
:100640000D30873186278131080020004F08031DB7
:100650002A2B2B2B532BB101B201200031083E3E37
:100660008600870101080319362B372B3C2B3208F3
:10067000AF003108AE00D62B0130B1070030B23DDB
:100680003208803AB00080303002031D492B04301C
:100690003102031C4C2B4D2B2D2BFF302000AE00C4
:1006A000FF30AF00D62B4F03031D572B582B8D2B3C
:1006B0005008013EB300003003180130B400340884
:1006C000803AB00080303002031D682B04303302C2
:1006D000031C6B2B6C2B6D2B8D2B200033083E3EA7
:1006E0008600870101080319762B772B7C2B3408B1
:1006F000AF003308AE00D62B0130B3070030B43D55
:100700003408803AB00080303002031D892B043059
:100710003302031C8C2B8D2B6D2B023020004F06D7
:10072000031D932B942BB32B5008FF3EB500FF30D5
:1007300003180030B600B61F9E2B9F2BA02BB32BA7
:1007400035083E3E8600870101080319A82BA92B16
:10075000AE2B3608AF003508AE00D62BFF30B507FC
:10076000FF30B63D9B2BB701B801200037083E3E55
:100770008600870101080319BE2BBF2BC42B380844
:10078000AF003708AE00D62B0130B7070030B83DB8
:100790003808803AB00080303002031DD12B04307D
:1007A0003702031CD42BD52BB52B4D2B08008E31D3
:1007B000782683312000AC004A082C02AD002C08BA
:1007C000CA004E03031DE52BE62BFB2B2D08A000D2
:1007D000A1012008C2072108C33D00304302DD30DB
:1007E00003194202031CF52BF62B182CDC30C20037
:1007F0000030C300182C02304E06031D002C012CC3
:10080000182C2D08A000A10121084302031D0A2C69
:100810002008420203180D2C0E2C112CC201C3011A
:10082000182C2D08A000A1012008C2022108C33BFA
:100830004208F0004308F100F201F3010030F70034
:100840000030F6000330F5004530F4008631CB2649
:10085000833173082000A7007208A6007108A50064
:100860007008A4000030F3000030F2000330F10003
:10087000E830F0002708F7002608F6002508F50004
:100880002408F40085316625833170082000CD00EE
:100890002D08A000A101A201A3012308F300220852
:1008A000F2002108F1002008F0000030F7000030CD
:1008B000F6000330F5004530F4008631CB26833155
:1008C00073082000AB007208AA007108A900700824
:1008D000A8000030F3000030F2000030F100643076
:1008E000F0002B08F7002A08F6002908F500280870
:1008F000F40085316625833170082000CC000800A3
:1009000020005008B2000230B235890B842C320826
:10091000B3004F08B2000230B235890B8C2C32087C
:10092000B40022008D1001302000B5003508B7005A
:100930003308F83E840087300318013E8500000824
:10094000B8003730AE000230AF000030B000873161
:10095000AD27843101302000B3070130B5070530E1
:100960003502031CB42CB52C962C0130B600360889
:10097000B7003408083E840088300318013E850023
:100980000008B8003730AE000230AF000030B000D1
:100990008731AD27843101302000B4070130B6071C
:1009A00004303602031CD52CD62CB72C0430B700EB
:1009B0003408B8003E08B2000730B235890BDD2C90
:1009C00032083807B8003F08B2000630B235890B4C
:1009D000E62C32083807B8004008B2000530B235BE
:1009E000890BEF2C32083807B8004108B2000430F8
:1009F000B235890BF82C32083807B8003730AE0012
:100A00000230AF000030B0008731AD2784312200C2
:100A10008D1408002000B901B51F0F2D102D172DC2
:100A2000B409B509B40A0319B50A0130B900B71FF2
:100A30001A2D1B2D222DB609B709B60A0319B70ABC
:100A40000130B906BA01BB01340835040319292D58
:100A50002A2D572D0130B800342D0130B435B50D95
:100A6000890B2E2D0130B807B51F372D382D2D2DB0
:100A70000130BA35BB0D890B392D35083702031DFE
:100A8000432D34083602031C462D472D4C2D3408C7
:100A9000B6023508B73B3A140130B536B40C890BB1
:100AA0004D2D0130B802031D562D572D382D390814
:100AB00003195B2D5C2D612DBA09BB09BA0A031914
:100AC000BB0A3B08B5003A08B40008000030FB0040
:100AD0000030FA000030F9000030F80073087204AA
:100AE000710470040319752D762DB52D0130FC00AD
:100AF000822D0130F035F10DF20DF30D890B7A2DB9
:100B00000130FC07F31F852D862D792D0130F83536
:100B1000F90DFA0DFB0D890B872D73087702031D64
:100B20009B2D72087602031D9B2D71087502031D13
:100B30009B2D70087402031C9E2D9F2DA82D7008FC
:100B4000F4027108F53B7208F63B7308F73B781422
:100B50000130F336F20CF10CF00C890BA92D0130A9
:100B6000FC02031DB42DB52D862D7B08F3007A08F9
:100B7000F2007908F1007808F00008002000B301C5
:100B8000B11FC32DC42DCB2DB009B109B00A031973
:100B9000B10A0130B300AF1FCE2DCF2DD42DAE0939
:100BA000AF09AE0A0319AF0A2E082F040319D92D75
:100BB000DA2D012E0130B200E42D0130AE35AF0D3B
:100BC000890BDE2D0130B207AF1FE72DE82DDD2D9B
:100BD0002F083102031DEE2D2E083002031CF12DCB
:100BE000F22DF62D2E08B0022F08B13B0130AF36A2
:100BF000AE0C890BF72D0130B202031D002E012E21
:100C0000E82D33080319052E062E0B2EB009B10965
:100C1000B00A0319B10A3108AF003008AE0008006D
:100C20002100911292302000AE000630AF008E31CC
:100C3000C826863121001112E2302000AE000F30AC
:100C4000AF008E31D1268631083023009F009030CE
:100C50009D0024309E0067309B009C015F30200087
:100C6000AE000E30AF008E31B62686316C302000DB
:100C7000AE000E30AF008E31BF26863168302000C6
:100C8000AE000E30AF008E31AD2686312000D2018D
:100C9000D701D6010830D500FD01D401D3012100D0
:100CA0009116080020000D18562E572E582ED001F0
:100CB0008D195B2E5C2E5E2E0130D0002200111F9C
:100CC000622E632E662E02302000D0002200131FF9
:100CD0006A2E6B2E6E2E03302000D00020000D18DF
:100CE000722E732E7F2E02304E06031D782E792E23
:100CF0007F2E8E31F62686312000CF01CD012200D5
:100D0000131F832E842E912E20004E03031D892E47
:100D10008A2E912E8E31F62686312000CF01B430F6
:100D2000CD0008007D08A03E8600870181012300D8
:100D30001D1D9B2E9C2EA72E7D08A03E86008701A0
:100D4000811421004B088A004A080A0086312300DA
:100D50009D1CAB2EAC2EB72E7D08A03E86008701D1
:100D60000115210049088A0048080A0086317D08DB
:100D7000A03E8600870101080319BF2EC02EC72E92
:100D8000210047088A0046080A008631CA2E8F31A2
:100D90009E27863108000030FB000030FA0000304A
:100DA000F9000030F800701CD62ED72EDF2E740804
:100DB000F8077508F93D7608FA3D7708FB3D0130E4
:100DC000F435F50DF60DF70D890BE02E0130F336F5
:100DD000F20CF10CF00C890BE72E7308720471040D
:100DE0007004031DF42EF52ED32E7B08F3007A0831
:100DF000F2007908F1007808F00008008030220045
:100E00008C008D01373021008C00ED308D00C0301A
:100E100023008D000F308C00093024008D008C01E0
:100E200021009513C03022009D0001309E00270054
:100E30001610961115149515141094116030200099
:100E4000AE000E30AF008E317D268631613020003D
:100E5000AE000E30AF008E31832686318B15080030
:100E60008731D3278731243A031D372F382F582F46
:100E70008731D32787312000B1002F0886008701F2
:100E8000310881008731D32787312000B100300835
:100E900086008701310881008731D32787310D3AD9
:100EA000031D532F542F582F2000AF01B0015D2F89
:100EB00001302000AF000030B00008008F31002763
:100EC00087318631FE2687318E31952687318E31E6
:100ED000742687318F31172787318E3170268731FD
:100EE0008F31B22787318F318B2787318E31EC26B6
:100EF00087318F310B2787318E319C2687318E3198
:100F0000DA26873186311026873108002000AE00AE
:100F1000550803198C2F8D2F882F2100111A912F1E
:100F2000922F972F20002E0823009A00AA2F11122B
:100F300020005708B03E860087012E08810001304E
:100F4000D70708305702031CA62FA72FA82FD701B9
:100F50000130D50221001116080020002E08B10032
:100F6000C62F310886008701010824009100200067
:100F7000911DBB2FBC2FB72F91113108860087011F
:100F800024001108810001302000B1070130AF02B8
:100F90000030B03B2F0A031DD12F300A031DD12F83
:100FA000D22FB12F0800200053080319D82FD92FB2
:100FB000D32F5408A03E860087010108D2005408B0
:100FC000A83E860087010108AE000130D407083032
:100FD0005402031CEC2FED2FEE2FD40121009112AF
:100FE00001302000D3022100911620002E080800B5
:100FF00000348234FF348034C234A13491348E34CE
:101000004234813489347634073404340434FF3470
:10101000003400340034003400340234013402342B
:1010200000340234043402340034403401340034D7
:101CBE0008000800080020009212080020001213ED
:101CCE0008008F319E278E31080023001D121D162D
:101CDE0008008A3022009700080016302100970075
:101CEE00080020001508F0007008080020002F08DA
:101CFE00E0002E08DF00080020002F08DE002E086E
:101D0E00DD00080020002F08DC002E08DB00080094
:101D1E00640080010131890B902E00347230210055
:101D2E0099009801220096010800D33021009E00F0
:101D3E009B019C0101309D00080020005308031DEB
:101D4E00A92EAB2E0130AC2E0030080020002F083B
:101D5E002100C70020002E082100C6000800200028
:101D6E002F082100CB0020002E082100CA000800F9
:101D7E0020002F082100C90020002E082100C800D5
:101D8E00080020002F082100CF0020002E0821007F
:101D9E00CE00080020002F082100D10020002E08C0
:101DAE002100D00008000C30260093009101920112
:101DBE00CF3025009E05080020002F082100CD0001
:101DCE0020002E082100CC00080021001508C03983
:101DDE003838950020009501D8010B11080000300D
:101DEE002000AE00AF008F31C6278E312000CE010D
:101DFE00080040302400940095010130920021002B
:101E0E000D12240095120800210092128430220037
:101E1E009100E030920020009212210092160800EC
:101E2E0021001213843022009300E1309400200030
:101E3E001213210012170800200091105B085C0499
:101E4E0003192A2F2B2F302F5C088A005B080A00FB
:101E5E008F31080022008C139A302000AE00013022
:101E6E00AF008F31C6278F3102302000CE00080020
:101E7E0022008C179A302000AE000130AF008F3157
:101E8E00C6278F3101302000CE00080020005F08E9
:101E9E0060040319532F542F592F60088A005F08CE
:101EAE000A008F3127001610080020005D085E041E
:101EBE000319622F632F682F5E088A005D080A00DF
:101ECE008F312700961108002000931021004C0836
:101EDE004D040319732F742F792F4D088A004C0867
:101EEE000A008F3108002700161C7E2F7F2F822FAD
:101EFE008F314D278F312700961D862F872F8A2FE2
:101F0E008F315C278F310800FF3020009B009A0133
:101F1E0091102100911402302000AE000030AF006D
:101F2E008E3189268F311C3020009C0008007D08E0
:101F3E00A83E860087012300190881000130FD07A5
:101F4E0008307D02031CAC2FAD2FAE2FFD010130EA
:101F5E002000D3070800EF302800960095012000DE
:101F6E0093102100931403302000AE000030AF0018
:101F7E008E31E3268F31673028009700080020004D
:101F8E002F08B1002E08B000B136B00CB136B00C2F
:101F9E0030082600910020002E080339B0000430CE
:101FAE00B035890BD72F26001308CF392000300407
:101FBE002600930008000830200055020318E82F71
:101FCE00E92FFD2F5608B03E860087010108230039
:101FDE009A0001302000D60708305602031CF82F55
:101FEE00F92FFA2FD6010130D507FF2F210011123C
:021FFE000800D9
:020000040001F9
:04000E00E43FFF3E8E
:00000001FF
