:1000000080317228080008007E1480318B1D092879
:100010000A2812280B1C0D280E2812288D31FE25C7
:10002000803170280B1F1528162870282100111EFA
:100030001A281B2827282000111E1F2820282728BF
:10004000210060088A005F080A00803170282100C2
:10005000911E2B282C2838282000911E302831286A
:10006000382821005E088A005D080A008031702867
:100070002100121F3C283D2846282000121F41283D
:10008000422846288C31DF24803170282100921EBE
:100090004A284B2854282000921E4F2850285428C4
:1000A0008C31DC24803170282100931C5828592879
:1000B00062282000931C5D285E2862288D31EF2580
:1000C000803170282100911C662867287028200044
:1000D000911C6B286C2870288D31E02580317028A8
:1000E0007E10090080317428FD012030840000302A
:1000F00085001E308C31F7248031A0308400003020
:10010000850020308C31F72480317E102000803132
:1001100089288E31E926803123008D0121008D1040
:1001200022008D148B11AE302000D2000330D3009A
:100130008D31662580318B170B172400951295168B
:100140008D317925803187317C2780318D310C25A7
:100150008031003A0319AD28AE282B293D3020000C
:10016000D3003C30D4008F313E278031200053082B
:100170005404031DBC28BD282B293D08D03E210076
:10018000CF00FF3003180030D00020003C08D03EE4
:100190002100D100FF3003180030D200D01BD1283D
:1001A000D2282B295008803ACA0080304A02031D09
:1001B000DB2804304F020318DE28DF282B2921001A
:1001C000D21BE328E4282B295208803ACA00803049
:1001D0004A02031DED28043051020318F028F128CB
:1001E0002B2921005008803ACA005208803A4A025E
:1001F000031DFC2851084F020318FF2800290E296F
:1002000021004F08203E86008701013081005108FF
:10021000203E86008701013081002B2921005208F1
:10022000803ACA005008803A4A02031D19294F0833
:10023000510203181C291D292B2921004F08B83E03
:1002400086008701013081005108B83E8600870191
:10025000013081002B298631C4268031DF2920001E
:100260003308203E860087010108031938293929FF
:1002700042298F316C27803103302000B400AC015B
:10028000AD01FA293308B83E860087010108031939
:100290004A294B294C2939293308873104278031D1
:1002A000003A0319542955295C298D31B425803130
:1002B00001302000B400FA29200033088F311127C3
:1002C0008031003A0319652966296D298D31A625EB
:1002D000803102302000B400FA29200033080319CD
:1002E00072297329772901302100B800FA29FA29E7
:1002F00020003308203E8600870101080319812968
:10030000822986298D317925803139293308873131
:1003100004278031003A031D8E298F29FA292000F5
:100320003308B83E860087010108031998299929E6
:100330009A2982298D31792580312000B401FA294A
:1003400020003308B83E8600870101080319A92957
:10035000AA29AB29822933088F3111278031003A2D
:10036000031DB329B429FA2920003308203E860052
:10037000870101080319BD29BE299A298229013064
:100380002000AC070030AD3D00302D02C83003190D
:100390002C02031CCC29CD29FA290430B4003F29B2
:1003A00001302000AC070030AD3D00302D0232306E
:1003B00003192C02031CDD29DE29FA299D292000BE
:1003C00034082100CA00CB014B08003A0319E9297F
:1003D000FA294A08003A03192F29013A0319782902
:1003E000033A0319A029013A0319BF29073A03194F
:1003F000D029FA2901302100BC070030BD3D003072
:100400003D021E3003193C02031C072A082A472A12
:100410008231532280312100CD01CE0101302100F3
:10042000CC004D08203E860087010108031D192AD3
:100430001A2A242A4D08B83E860087010108031DA8
:10044000222A232A242ACC014D08243E8600870133
:100450004C08031D2C2A2E2A01302F2A003081003F
:100460000130CD070030CE3D4E08803ACA008030C2
:100470004A02031D3D2A04304D02031C402A412A32
:100480000E2A8431922480312100BC01BD011A3032
:100490002100CA00F830890B4B2ACA0B4B2A0000F6
:1004A000A6288031722824308E31C2268231200065
:1004B0003308303E8E31C226823120003208303E71
:1004C0008E31C226823120003108303E8E31C22664
:1004D000823164302000D8000030D900300821007B
:1004E000C400C50144082000DA00210045082000AE
:1004F000DB0085312225823120005808303E8E31C4
:10050000C22682310A302000D8000030D9003008DD
:100510002100C400C50144082000D4002100450882
:100520002000D5006430D2000030D3008531E825AA
:10053000823120005308DB005208DA008531222581
:10054000823120005808303E8E31C2268231200090
:1005500030082100C400C50144082000D400210057
:1005600045082000D5006430D2000030D30085312A
:10057000E8258231200053082100C90020005208DC
:100580002100C8000A302000D2000030D300210032
:1005900049082000D500210048082000D4008531FA
:1005A000E825823120005208303E8E31C226823149
:1005B00064302000D8000030D9002F082100C4008A
:1005C000C50144082000DA00210045082000DB00B6
:1005D00085312225823120005808303E8E31C226D6
:1005E00082310A302000D8000030D9002F082100C5
:1005F000C400C50144082000D400210045082000A3
:10060000D5006430D2000030D3008531E825823136
:1006100020005308DB005208DA00853122258231A0
:1006200020005808303E8E31C22682312E308E3165
:10063000C226823120002F082100C400C5014408D1
:100640002000D400210045082000D5006430D200ED
:100650000030D3008531E825823120005308210085
:10066000C900200052082100C8000A302000D20032
:100670000030D300210049082000D500210048089F
:100680002000D4008531E825823120005208303E18
:100690008E31C226823164302000D7000030D8006D
:1006A0002B08DA002A08D90086313A268231200048
:1006B0005708303E8E31C22682310A302000D700E2
:1006C0000030D8002B08D5002A08D4006430D200AE
:1006D0000030D3008731B127823120005308DA007F
:1006E0005208D90086313A26823120005708303E20
:1006F0008E31C22682312E308E31C22682312000C8
:100700002B08D5002A08D4006430D2000030D30072
:100710008731B1278231200053082100C700200013
:1007200052082100C6000A302000D2000030D30059
:10073000210047082000D500210046082000D400F1
:100740008731B127823120005208303E8E31C226D7
:1007500082310D308E31C226823108008C31F22474
:1007600083312000D0002E085002D1005008AE0086
:100770003103031DBC2BBD2BD22B5108BE00BF0182
:100780003E08A8073F08A93D00302902DD300319C3
:100790002802031CCC2BCD2BEF2BDC30A800003023
:1007A000A900EF2B02303106031DD72BD82BEF2BDE
:1007B0005108BE00BF013F082902031DE12B3E087E
:1007C00028020318E42BE52BE82BA801A901EF2B45
:1007D0005108BE00BF013E08A8023F08A93B2808F7
:1007E000F0002908F100F201F3010030F7000030B9
:1007F000F6000330F5004530F4008F31CD2783310A
:1008000073082000C5007208C4007108C300700896
:10081000C2000030F3000030F2000330F100E83095
:10082000F0004508F7004408F6004308F5004208C8
:10083000F40085319025833170082000B000510804
:10084000BE00BF01C001C1014108F3004008F20031
:100850003F08F1003E08F0000030F7000030F600DD
:100860000330F5004530F4008F31CD278331730814
:100870002000C9007208C8007108C7007008C600CF
:100880000030F3000030F2000030F1006430F0007E
:100890004908F7004808F6004708F5004608F40044
:1008A00085319025833170082000AF0002308E31F1
:1008B0006426833171082000CF007008CE004E08F6
:1008C000F0004F08F100F201F3010030F7000030B2
:1008D000F6000330F500E730F4008F31CD27833187
:1008E00073082000CD007208CC007108CB0070089E
:1008F000CA000030F3000030F2000330F100FF3096
:10090000F0004D08F7004C08F6004B08F5004A08C7
:10091000F40085319025833171082000AB00700808
:10092000AA00080020003308D4000230D435890B17
:10093000962C54082100C00020003408D400023056
:10094000D435890BA02C54082100C200C3011430F7
:100950002000D4008830D500210040082000540732
:10096000D6000030553DD70021004308200056072F
:10097000840057080318013E85000008D2002100BA
:100980004308013E8E314A26843101302100C307DD
:1009900004304302031CCD2CCE2CA72CC401003004
:1009A0002000D4008830D5002100420820005407E0
:1009B000D6000030553DD7002100440820005607DE
:1009C000840057080318013E85000008D20021006A
:1009D0004408053E8E314A26843101302100C40787
:1009E00004304402031CF52CF62CCF2C4208033EA5
:1009F000840088300318013E85000008C100C5014D
:100A00004508243E8600870101080319082D092D99
:100A1000122D4508303E840088300318013E8500C1
:100A20000008C1070130C50704304502031C192D19
:100A30001A2D002D41082000D20008308E314A26A0
:100A4000843108002100C1012000D91F282D292D43
:100A5000312DD809D909D80A0319D90A0130210042
:100A6000C1002000DB1F352D362D3E2DDA09DB09B4
:100A7000DA0A0319DB0A01302100C1062100C20194
:100A8000C3012000580859040319472D482D7D2D16
:100A900001302100C000542D0130D835D90D890B0B
:100AA0004D2D01302100C0072000D91F582D592D90
:100AB0004C2D01302100C235C30D890B5B2D200068
:100AC00059085B02031D662D58085A02031C692D44
:100AD0006A2D702D5808DA025908DB3B21004214B8
:100AE00001302000D936D80C890B722D013021003D
:100AF000C002031D7C2D7D2D592D210041080319B5
:100B0000822D832D882DC209C309C20A0319C30A85
:100B100043082000D900210042082000D800080026
:100B20000030FB000030FA000030F9000030F8001F
:100B3000730872047104700403199F2DA02DDF2D1A
:100B40000130FC00AC2D0130F035F10DF20DF30D4C
:100B5000890BA42D0130FC07F31FAF2DB02DA32D61
:100B60000130F835F90DFA0DFB0D890BB12D730825
:100B70007702031DC52D72087602031DC52D71086D
:100B80007502031DC52D70087402031CC82DC92DE4
:100B9000D22D7008F4027108F53B7208F63B730819
:100BA000F73B78140130F336F20CF10CF00C890BA2
:100BB000D32D0130FC02031DDE2DDF2DB02D7B086F
:100BC000F3007A08F2007908F1007808F0000800D4
:100BD0002000D701D51FED2DEE2DF52DD409D50917
:100BE000D40A0319D50A0130D700D31FF82DF92DE7
:100BF000FE2DD209D309D20A0319D30A520853048D
:100C00000319032E042E2B2E0130D6000E2E013098
:100C1000D235D30D890B082E0130D607D31F112EE4
:100C2000122E072E53085502031D182E5208540287
:100C3000031C1B2E1C2E202E5208D4025308D53B19
:100C40000130D336D20C890B212E0130D602031D80
:100C50002A2E2B2E122E570803192F2E302E352E0A
:100C6000D409D509D40A0319D50A5508D300540864
:100C7000D20008002100C101C20120005708580419
:100C80000319432E442E792E01302100C000502E2E
:100C90000130D735D80D890B492E01302100C0070E
:100CA0002000D81F542E552E482E01302100C1356A
:100CB000C20D890B572E200058085A02031D622EC0
:100CC00057085902031C652E662E6C2E5708D90250
:100CD0005808DA3B2100411401302000D836D70CE7
:100CE000890B6E2E01302100C002031D782E792E53
:100CF000552E210042082000D80021004108200084
:100D0000D70008002100911243302000D2000730A4
:100D1000D3008D3130258631210011127F30200023
:100D2000D2000E30D3008D313925863108302300B2
:100D30009F0090309D0024309E0067309B009C01F6
:100D4000D9302000D2000C30D3008D311E258631E1
:100D5000E6302000D2000C30D3008D3127258631BB
:100D6000E2302000D2000C30D3008D3115258631C1
:100D70002000B501BA01B9010830B800FD01B70182
:100D8000B60121009116080020000D18C82EC92EAA
:100D9000CA2EB3018D19CD2ECE2ED02E0130B30028
:100DA0002200111FD42ED52ED82E02302000B300E1
:100DB0002200131FDC2EDD2EE02E03302000B300B6
:100DC00020000D18E42EE52EF12E02303106031D11
:100DD000EA2EEB2EF12E8D31792586312000B401DB
:100DE000B0012200131FF52EF62E032F2000310331
:100DF000031DFB2EFC2E032F8D317925863120001B
:100E0000B401B430B00008002000D3005308013E04
:100E1000D400003003180130D5005508803AD200C4
:100E200080305202031D162F04305402031C192F68
:100E30001A2F1B2F412F20005408203E86008701C7
:100E40000108031D242F252F2E2F5408B83E86009D
:100E50008701010803192D2F2E2F302F0130422F2B
:100E60000130D4070030D53D5508803AD20080309B
:100E70005202031D3D2F04305402031C402F412F0A
:100E80001B2F003008007D08A03E860087018101ED
:100E900023001D1D4C2F4D2F582F7D08A03E86008E
:100EA00087018114210058088A0057080A008731F9
:100EB00023009D1C5C2F5D2F682F7D08A03E8600BF
:100EC00087010115210056088A0055080A0087315C
:100ED0007D08A03E8600870101080319702F712F3D
:100EE000782F210054088A0053080A0087317B2F8D
:100EF0008E312226873108002100911122008D14A5
:100F00002000D4019A2F5408253E8400883003180D
:100F1000013E85000008D2005408243E8400883039
:100F20000318013E850000088E314A2687310230C1
:100F30002000D4070C305402031C9F2FA02F832FB6
:100F40000130D500D20155088E314A268731013053
:100F50002000D50709305502031CAF2FB02FA22F58
:100F600008002000520853040319B72FB82FDF2FB1
:100F70000130D600C22F0130D235D30D890BBC2FE2
:100F80000130D607D31FC52FC62FBB2F53085502DC
:100F9000031DCC2F52085402031CCF2FD02FD42F67
:100FA0005208D4025308D53B0130D336D20C890BFA
:100FB000D52F0130D602031DDE2FDF2FC62F550897
:100FC000D3005408D200080020005308D50052086E
:100FD000D400D536D40CD536D40C54082600910054
:100FE000200052080339D4000430D435890BF52F82
:100FF00026001308CF39200054042600930008006F
:101000000034003400340034003402340434023438
:101010000034023401340234003402340234023425
:10102000003402340234023400340134FF344134D9
:1010300071348934853443346E349134813442348C
:10104000FF3410341034F034093400340A340034DE
:101050000B3407340C3401340F3401340F340034B2
:1010600010342034403480340034403401340034AF
:1019B20008000800080020009212080020001213FC
:1019C20008008E3122268C31080023001D121D16BC
:1019D20008008A3022009700080016302100970084
:1019E200080020001508F00070080800640080015B
:1019F2000131890BF82C00347230210099009801D2
:101A0200220096010800D33021009E009B019C0118
:101A120001309D00080020003608031D112D132DF2
:101A22000130142D00300800200053082100D4009A
:101A3200200052082100D300080020005308210092
:101A4200D800200052082100D700080020005308C7
:101A52002100D600200052082100D50008002000F5
:101A620053082100DE00200052082100DD0008009A
:101A7200200053082100E000200052082100DF006E
:101A82000800200053082100E40020005208210031
:101A9200E3000800200053082100E2002000520861
:101AA2002100E10008000C30260093009101920110
:101AB200CF3025009E050800200053082100DC00DD
:101AC200200052082100DB000800200053082100FA
:101AD200DA00200052082100D90008002100150870
:101AE200C0393838950020009501BB010B11080060
:101AF20000302000D200D3008731E4278D3120004E
:101B0200B101080040302400940095010130920098
:101B120021000D1224009512080021009212843037
:101B220022009100E03092002000921221009216D1
:101B3200080021001213843022009300E130940047
:101B42002000121321001217080022008C136630A5
:101B52002000D2000230D3008731E4278D310230D9
:101B62002000B100080022008C1766302000D2004D
:101B72000230D3008731E4278D3101302000B100DB
:101B820008002100630864040319C82DC92DCE2D55
:101B920064088A0063080A008D31270016100800C5
:101BA2002100610862040319D72DD82DDD2D6208AA
:101BB2008A0061080A008D31270096110800200072
:101BC200911021005B085C040319E82DE92DEE2D2C
:101BD2005C088A005B080A008D310800200093101F
:101BE200210059085A040319F72DF82DFD2D5A0822
:101BF2008A0059080A008D3108002700161C022E9F
:101C0200032E062E8D31C2258D312700961D0A2EF8
:101C12000B2E0E2E8D31D1258D310800FF30200084
:101C22009B009A0191102100911402302000D200F1
:101C32000030D3008D315D258E311C3020009C0098
:101C420008007D08A83E860087012300190881004C
:101C52000130FD0708307D02031C302E312E322E5A
:101C6200FD0101302000B6070800EF302800960081
:101C72009501200093102100931403302000D2001C
:101C82000030D3008D3166258E31673028009700F1
:101C920008002000D30022008D10200053082400E9
:101CA20091002000911D562E572E522E911152084E
:101CB200240091002000911D5F2E602E5B2E911159
:101CC20022008D140800F3007308F200F20DF20DE9
:101CD20021001D087206833972069D001D1403300F
:101CE200890B712E000021009D149D18792E7A2EE9
:101CF200762E1C08F1001B08F000080008302000B6
:101D020038020318852E862E9A2E3908B03E860098
:101D12008701010823009A0001302000B90708302A
:101D22003902031C952E962E972EB9010130B80761
:101D32009C2E210011120800200036080319A22E41
:101D4200A32E9D2E3708A03E860087010108B5000C
:101D52003708A83E860087010108D2000130B70784
:101D620008303702031CB62EB72EB82EB701210059
:101D7200911201302000B602210091162000520873
:101D820008002000D20038080319C82EC92EC42E1C
:101D92002100111ACD2ECE2ED32E20005208230060
:101DA2009A00E62E111220003A08B03E8600870102
:101DB200520881000130BA0708303A02031CE22EB1
:101DC200E32EE42EBA010130B802210011160800F8
:101DD2008D3183258E318F319B278E318C31FD24BD
:101DE2008E318C31EE248E318D319A258E318C31AB
:101DF200EA248E318E3136268E318E310F268E3187
:101E02008D316F258E318D318E258E318D310425A8
:101E12008E318D3154258E31863182268E310800E5
:101E22002000D300D401D5012F2F20005408203EDA
:101E3200860087010108031D1F2F202F292F540818
:101E4200B83E8600870101080319282F292F2B2F5E
:101E520001303D2F0130D4070030D53D5508803A7E
:101E6200D20080305202031D382F53085402031C43
:101E72003B2F3C2F162F003008008E319D268F31CC
:101E8200243A031D452F462F662F8E319D268F3112
:101E92002000D500530886008701550881008E3145
:101EA2009D268F312000D5005408860087015508F1
:101EB20081008E319D268F310D3A031D612F622FD5
:101EC200662F2000D301D4016B2F01302000D300F4
:101ED2000030D4000800200034030319712F722F40
:101EE200772F3408031D762F772F7C2F3308203E5F
:101EF200860087018101023034060319812F822F67
:101F0200872F3408031D862F872F8C2F3308B83E66
:101F120086008701810103303306031D912F922F22
:101F2200932FA3013308031D972F982F9A2F210077
:101F3200B8010800803022008C008D01373021006A
:101F42008C00EF308D00803023008D000F308C002C
:101F5200093024008D008C0121009513C03022002D
:101F62009D0001309E00270016109611151495153C
:101F720014109411DA302000D2000C30D3008D31CD
:101F820042258F31DB302000D2000C30D3008D315E
:101F92004B258F318B1508000030FB000030FA0012
:101FA2000030F9000030F800701CD82FD92FE12F33
:101FB2007408F8077508F93D7608FA3D7708FB3D85
:101FC2000130F435F50DF60DF70D890BE22F0130D6
:101FD200F336F20CF10CF00C890BE92F7308720442
:101FE20071047004031DF62FF72FD52F7B08F30021
:0E1FF2007A08F2007908F1007808F000080083
:020000040001F9
:04000E00E43FFF3E8E
:00000001FF
