:1000000080317228080008007E1480318B1D092879
:100010000A2812280B1C0D280E2812288F3157276A
:10002000803170280B1F1528162870282100111EFA
:100030001A281B2827282000111E1F2820282728BF
:10004000210051088A0050080A00803170282100E0
:10005000911E2B282C2838282000911E302831286A
:10006000382821004F088A004E080A008031702885
:100070002100121F3C283D2846282000121F41283D
:10008000422846288E314226803170282100921E57
:100090004A284B2854282000921E4F2850285428C4
:1000A0008E313F26803170282100931C5828592812
:1000B00062282000931C5D285E2862288F31482723
:1000C000803170282100911C662867287028200044
:1000D000911C6B286C2870288F3100278031702884
:1000E0007E10090080317428FD013E30840000300C
:1000F00085001D308E316C268031A03084000030A8
:10010000850018308E316C2680317E1020008031C1
:10011000892887319527803123008D0121008D109A
:1001200022008D148B11E3302000AE000330AF00AD
:100130008E31C02680318B170B172400951295162F
:100140008E31D32680318631CD2680318E31812685
:100150008031003A0319AD28AE28FF285A3020001C
:10016000AF005930B00087316727803120002F0859
:100170003004031DBC28BD28FF285A08D03E2100AA
:10018000C000FF3003180030C10020005908D03EE5
:100190002100C200FF3003180030C300C11BD1286A
:1001A000D228E6284108803ABA0080303A02031D7E
:1001B000DB28043040020318DE28DF28E62821006F
:1001C00040083E3E86008701013081002100C31BAC
:1001D000EA28EB28FF284308803ABA0080303A0228
:1001E000031DF428043042020318F728F828FF28DA
:1001F000210042083E3E86008701013081008631A1
:1002000054268031A72983313123803120002F08E3
:100210002100C50020002E082100C400440A031D4F
:100220001629450A0319152916293F2944082000D3
:10023000D1005108500203181E291F2926298F3189
:100240001C27803101302000CF00C2295008510204
:1002500003182B292C2933298F310E2780310230A6
:100260002000CF00C229210044083E3E86008701BD
:10027000810103302000CF00C401C501C229200044
:100280005008031944294529C2290130BE00C2295A
:10029000200050085106031D4E294F2959298E313F
:1002A000D3268031200050083E3E86008701810120
:1002B000392983313123803120002F082100BF00EC
:1002C00020002E082100BE003E0A031D6C293F0AB3
:1002D00003196B296C29C2293E082000D100C229CC
:1002E00001302000C4070030C53D00304502C83051
:1002F00003194402031C7D297E29C229833131233D
:10030000803120002F082100BD0020002E08210090
:10031000BC003C0A031D91293D0A0319902991292B
:10032000952904302000CF003C292000CF01C229AC
:1003300001302000C4070030C53D00304502323096
:1003400003194402031CA529A629C22995292000C6
:100350004F082100BA00BB013B08003A0319B1293C
:10036000C2293A08003A03190329013A0319482916
:10037000033A03194829013A03197029073A031966
:100380009829C22901302000C6070030C73D00303F
:1003900047021E3003194602031CCF29D029D92950
:1003A0008131E521803184318C2480312000C601E7
:1003B000C7011A302100BA00F830890BDD29BA0BC9
:1003C000DD290000A6288031722824308731BD271E
:1003D000813120005008303E8731BD278131200017
:1003E0005108303E8731BD27813120004E08303E14
:1003F0008731BD27813164302000B4000030B50062
:100400004D08BC00BD013C08B6003D08B700853171
:100410000C25813120003408303E8731BD278131E1
:100420000A302000B4000030B5004D08BC00BD010A
:100430003C08B0003D08B1006430AE000030AF00B1
:100440008531C025813120002F08B7002E08B60065
:1004500085310C25813120003408303E8731BD279D
:10046000813120004D08BC00BD013C08B0003D08B2
:10047000B1006430AE000030AF008531C02581315D
:1004800020002F082100B90020002E082100B8000C
:100490000A302000AE000030AF00210039082000F3
:1004A000B100210038082000B0008531C02581311D
:1004B00020002E08303E8731BD2781316430200076
:1004C000B4000030B5004C08BC00BD013C08B600CB
:1004D0003D08B70085310C25813120003408303EBD
:1004E0008731BD2781310A302000B4000030B500CB
:1004F0004C08BC00BD013C08B0003D08B1006430B0
:10050000AE000030AF008531C025813120002F08BA
:10051000B7002E08B60085310C2581312000340843
:10052000303E8731BD2781312E308731BD27813163
:1005300020004C08BC00BD013C08B0003D08B100E3
:100540006430AE000030AF008531C025813120001D
:100550002F082100B90020002E082100B8000A3021
:100560002000AE000030AF00210039082000B100AB
:10057000210038082000B0008531C02581312000DD
:100580002E08303E8731BD27813164302000B40011
:100590000030B5004B08BC00BD013C08B6003D086A
:1005A000B70085310C25813120003408303E873179
:1005B000BD2781310A302000B4000030B5004B085F
:1005C000BC00BD013C08B0003D08B1006430AE0085
:1005D0000030AF008531C025813120002F08B700E1
:1005E0002E08B60085310C25813120003408303EBC
:1005F0008731BD2781312E308731BD2781312000E1
:100600004B08BC00BD013C08B0003D08B10064309F
:10061000AE000030AF008531C025813120002F08A9
:100620002100B90020002E082100B8000A30200067
:10063000AE000030AF00210039082000B1002100D9
:1006400038082000B0008531C025813120002E08F7
:10065000303E8731BD2781310D308731BD27813153
:10066000080020004F08031D362B372B5F2BB101EC
:10067000B201200031083E3E8600870101080319BF
:10068000422B432B482B3208AF003108AE00E22B3F
:100690000130B1070030B23D3208803AB0008030FE
:1006A0003002031D552B04303102031C582B592BEB
:1006B000392BFF302000AE00FF30AF00E22B4F039C
:1006C000031D632B642B992B5008013EB3000030AF
:1006D00003180130B4003408803AB0008030300292
:1006E000031D742B04303302031C772B782B792BDA
:1006F000992B200033083E3E86008701010803192C
:10070000822B832B882B3408AF003308AE00E22BFA
:100710000130B3070030B43D3408803AB000803077
:100720003002031D952B04303302031C982B992BA8
:10073000792B023020004F06031D9F2BA02BBF2BCF
:100740005008FF3EB500FF3003180030B600B61F5A
:10075000AA2BAB2BAC2BBF2B35083E3E8600870166
:1007600001080319B42BB52BBA2B3608AF00350896
:10077000AE00E22BFF30B507FF30B63DA72BB70127
:10078000B801200037083E3E8600870101080319A2
:10079000CA2BCB2BD02B3808AF003708AE00E22B8A
:1007A0000130B7070030B83D3808803AB0008030DB
:1007B0003002031DDD2B04303702031CE02BE12B3C
:1007C000C12B592B08008E31552683312000AC00F7
:1007D0004A082C02AD002C08CA004E03031DF12B61
:1007E000F22B072C2D08A000A1012008C207210828
:1007F000C33D00304302DD3003194202031C012CCB
:10080000022C242CDC30C2000030C300242C023027
:100810004E06031D0C2C0D2C242C2D08A000A1012C
:1008200021084302031D162C200842020318192C2C
:100830001A2C1D2CC201C301242C2D08A000A101DB
:100840002008C2022108C33B4208F0004308F1001F
:10085000F201F3010030F7000030F6000330F5003C
:100860004530F40087310227833173082000A70048
:100870007208A6007108A5007008A4000030F300FB
:100880000030F2000330F100E830F0002708F700F4
:100890002608F6002508F5002408F40085316825AF
:1008A000833170082000CD002D08A000A101A20115
:1008B000A3012308F3002208F2002108F100200818
:1008C000F0000030F7000030F6000330F50045304E
:1008D000F40087310227833173082000AB007208CF
:1008E000AA007108A9007008A8000030F3000030C9
:1008F000F2000030F1006430F0002B08F7002A0805
:10090000F6002908F5002808F400853168258331B0
:1009100070082000CC00080020005008B000023011
:10092000B035890B902C3008B4004F08B00002306D
:10093000B035890B982C3008B600B7011430B000E0
:100940008830B10034083007B2000030313DB300C8
:1009500037083207840033080318013E8500000879
:10096000AE003708013E8F31A327843101302000CB
:10097000B70704303702031CBE2CBF2C9E2CB801D5
:100980000030B0008830B10036083007B2000030C7
:10099000313DB30038083207840033080318013EA4
:1009A00085000008AE003808053E8F31A32784314A
:1009B00001302000B80704303802031CE02CE12C81
:1009C000C02C3608033E840088300318013E8500A1
:1009D0000008B500B90139083E3E860087010108CC
:1009E0000319F32CF42CFD2C3908303E8400883098
:1009F0000318013E85000008B5070130B90704302F
:100A00003902031C042D052DEB2C3508AE000830EF
:100A10008F31A327843108002000B901B51F112DA3
:100A2000122D192DB409B509B40A0319B50A0130FC
:100A3000B900B71F1C2D1D2D242DB609B709B60A04
:100A40000319B70A0130B906BA01BB0134083504ED
:100A500003192B2D2C2D592D0130B800362D0130C6
:100A6000B435B50D890B302D0130B807B51F392DC0
:100A70003A2D2F2D0130BA35BB0D890B3B2D350892
:100A80003702031D452D34083602031C482D492D1D
:100A90004E2D3408B6023508B73B3A140130B5364E
:100AA000B40C890B4F2D0130B802031D582D592D60
:100AB0003A2D390803195D2D5E2D632DBA09BB0946
:100AC000BA0A0319BB0A3B08B5003A08B40008008B
:100AD0000030FB000030FA000030F9000030F80070
:100AE00073087204710470040319772D782DB72DE3
:100AF0000130FC00842D0130F035F10DF20DF30DC5
:100B0000890B7C2D0130FC07F31F872D882D7B2D51
:100B10000130F835F90DFA0DFB0D890B892D73089D
:100B20007702031D9D2D72087602031D9D2D71080D
:100B30007502031D9D2D70087402031CA02DA12DAC
:100B4000AA2D7008F4027108F53B7208F63B730891
:100B5000F73B78140130F336F20CF10CF00C890BF2
:100B6000AB2D0130FC02031DB62DB72D882D7B085F
:100B7000F3007A08F2007908F1007808F000080024
:100B80002000B301B11FC52DC62DCD2DB009B1096F
:100B9000B00A0319B10A0130B300AF1FD02DD12D17
:100BA000D62DAE09AF09AE0A0319AF0A2E082F04DD
:100BB0000319DB2DDC2D032E0130B200E62D0130B0
:100BC000AE35AF0D890BE02D0130B207AF1FE92D17
:100BD000EA2DDF2D2F083102031DF02D2E083002E3
:100BE000031CF32DF42DF82D2E08B0022F08B13B75
:100BF0000130AF36AE0C890BF92D0130B202031D66
:100C0000022E032EEA2D33080319072E082E0D2E6F
:100C1000B009B109B00A0319B10A3108AF003008B0
:100C2000AE0008002100911294302000AE00063082
:100C3000AF008E31A526863121001112BD30200073
:100C4000AE000F30AF008E31AE2686310830230063
:100C50009F0090309D0024309E0067309B009C01D7
:100C60003C302000AE000E30AF008E31932686312E
:100C700049302000AE000E30AF008E319C26863108
:100C800045302000AE000E30AF008E318A2686310E
:100C90002000D201D701D6010830D500FD01D401D2
:100CA000D30121009116080020000D18582E592E4E
:100CB0005A2ED0018D195D2E5E2E602E0130D0008F
:100CC0002200111F642E652E682E02302000D000F5
:100CD0002200131F6C2E6D2E702E03302000D000CA
:100CE00020000D18742E752E812E02304E06031D25
:100CF0007A2E7B2E812E8E31D32686312000CF0195
:100D0000CD012200131F852E862E932E20004E0328
:100D1000031D8B2E8C2E932E8E31D32686312000F0
:100D2000CF01B430CD0008007D08A03E86008701C9
:100D3000810123001D1D9D2E9E2EA92E7D08A03E03
:100D400086008701811421004B088A004A080A00A6
:100D5000863123009D1CAD2EAE2EB92E7D08A03EFF
:100D6000860087010115210049088A0048080A0009
:100D700086317D08A03E8600870101080319C12E37
:100D8000C22EC92E210047088A0046080A00863173
:100D9000CC2E8F317B278631080021009111220053
:100DA0008D142000B001EB2E3008253E84008830E1
:100DB0000318013E85000008AE003008243E840080
:100DC00088300318013E850000088F31A327863143
:100DD00002302000B0070C303002031CF02EF12E40
:100DE000D42E0130B100AE0131088F31A3278631F6
:100DF00001302000B10709303102031C002F012F00
:100E0000F32E08000030FB000030FA000030F9003B
:100E10000030F800701C0D2F0E2F162F7408F807E5
:100E20007508F93D7608FA3D7708FB3D0130F43549
:100E3000F50DF60DF70D890B172F0130F336F20C77
:100E4000F10CF00C890B1E2F7308720471047004EE
:100E5000031D2B2F2C2F0A2F7B08F3007A08F2009A
:100E60007908F1007808F0000800803022008C003A
:100E70008D01373021008C00EF308D008030230051
:100E80008D000B308C00093024008D008C01210076
:100E90009513C03022009D0001309E0027001610DF
:100EA000961115149515141094113D302000AE00C4
:100EB0000E30AF008E315A2687313E302000AE0012
:100EC0000E30AF008E31602687318B1508008F31D0
:100ED000DB278731243A031D6E2F6F2F8F2F8F3121
:100EE000DB2787312000B1002F08860087013108F9
:100EF00081008F31DB2787312000B1003008860068
:100F00008701310881008F31DB2787310D3A031DBE
:100F10008A2F8B2F8F2F2000AF01B001942F01302B
:100F20002000AF000030B00008008E31DD26873190
:100F30008731352787318E31722687318E315126A0
:100F400087318E31F42687318E314D2687318F31AE
:100F50008F2787318F31682787318E31C9268731B6
:100F60008E31E82687318E31792687318E31B7264A
:100F7000873186311226873108002000AE005508DF
:100F80000319C32FC42FBF2F2100111AC82FC92F37
:100F9000CE2F20002E0823009A00E12F11122000EE
:100FA0005708B03E860087012E0881000130D70720
:100FB00008305702031CDD2FDE2FDF2FD701013051
:100FC000D50221001116080020002F08B1002E08BC
:100FD000B000B136B00CB136B00C3008260091002C
:100FE00020002E080339B0000430B035890BF52FEE
:100FF00026001308CF392000300426009300080093
:101000000034003400340034003402340434023438
:101010000034023401340234003402340234023425
:10102000003402340234023400340134FF344134D9
:1010300071348934853443346E349134813442348C
:10104000FF3410341034F034093400340A340034DE
:101050000B3407340C3401340F3401340F340034B2
:1010600010342034403480340034403401340034AF
:101C78000800080008002000921208002000121333
:101C880008008F317B278E31080023001D121D1696
:101C980008008A30220097000800163021009700BB
:101CA800080020001508F0007008080020002F0820
:101CB800E0002E08DF00080020002F08DE002E08B4
:101CC800DD00080020002F08DC002E08DB000800DB
:101CD800640080010131890B6D2E003472302100BF
:101CE80099009801220096010800D33021009E0037
:101CF8009B019C0101309D00080020005308031D32
:101D0800862E882E0130892E0030080020002F08EA
:101D18002100C70020002E082100C600080020006E
:101D28002F082100CB0020002E082100CA0008003F
:101D380020002F082100C90020002E082100C8001B
:101D4800080020002F082100CF0020002E082100C5
:101D5800CE00080020002F082100D10020002E0806
:101D68002100D00008000C30260093009101920158
:101D7800CF3025009E05080020002F082100CD0047
:101D880020002E082100CC00080021001508C039C9
:101D98003838950020009501D8010B110800003053
:101DA8002000AE00AF008731E4278E312000CE013D
:101DB8000800403024009400950101309200210071
:101DC8000D1224009512080021009212843022007E
:101DD8009100E03092002000921221009216080033
:101DE80021001213843022009300E1309400200077
:101DF8001213210012170800200091105B085C04E0
:101E08000319072F082F0D2F5C088A005B080A00AA
:101E18008F31080022008C1366302000AE0002309B
:101E2800AF008731E4278F3102302000CE00080050
:101E380022008C1766302000AE000230AF008731D8
:101E4800E4278F3101302000CE00080020005F0811
:101E580060040319302F312F362F60088A005F087D
:101E68000A008F3127001610080020005D085E0464
:101E780003193F2F402F452F5E088A005D080A008E
:101E88008F312700961108002000931021004C087C
:101E98004D040319502F512F562F4D088A004C0816
:101EA8000A008F3108002700161C5B2F5C2F5F2F5C
:101EB8008F312A278F312700961D632F642F672FB4
:101EC8008F3139278F310800FF3020009B009A019D
:101ED80091102100911402302000AE000030AF00B4
:101EE8008E3166268F311C3020009C0008007D084A
:101EF800A83E860087012300190881000130FD07EC
:101F080008307D02031C892F8A2F8B2FFD01013099
:101F18002000D3070800EF30280096009501200024
:101F280093102100931403302000AE000030AF005E
:101F38008E31C0268F3167302800970008002000B6
:101F4800AF0022008D1020002F08240091002000EF
:101F5800911DAF2FB02FAB2F91112E0824009100A7
:101F68002000911DB82FB92FB42F911122008D1484
:101F780008000830200055020318C32FC42FD82F9B
:101F88005608B03E86008701010823009A000130F8
:101F98002000D60708305602031CD32FD42FD52F84
:101FA800D6010130D507DA2F2100111208002000D0
:101FB80053080319E02FE12FDB2F5408A03E8600B9
:101FC80087010108D2005408A83E8600870101084D
:101FD800AE000130D40708305402031CF42FF52F4B
:101FE800F62FD4012100911201302000D3022100E4
:081FF800911620002E080800DC
:020000040001F9
:04000E00E43FFF3E8E
:00000001FF
