:1000000080317228080008007E1480318B1D092879
:100010000A2812280B1C0D280E2812288F317E2743
:10002000803170280B1F1528162870282100111EFA
:100030001A281B2827282000111E1F2820282728BF
:10004000210051088A0050080A00803170282100E0
:10005000911E2B282C2838282000911E302831286A
:10006000382821004F088A004E080A008031702885
:100070002100121F3C283D2846282000121F41283D
:10008000422846288E316926803170282100921E30
:100090004A284B2854282000921E4F2850285428C4
:1000A0008E316626803170282100931C58285928EB
:1000B00062282000931C5D285E2862288F316F27FC
:1000C000803170282100911C662867287028200044
:1000D000911C6B286C2870288F312727803170285D
:1000E0007E10090080317428FD013E30840000300C
:1000F00085001D308E3193268031A0308400003081
:10010000850018308E31932680317E10200080319A
:10011000892887316B27803123008D0121008D10C4
:1001200022008D148B11E3302000AE000330AF00AD
:100130008E31E72680318B170B1724009512951608
:100140008E31FA2680318631A32680318E31A82661
:100150008031003A0319AD28AE28FF285A3020001C
:10016000AF005930B00087313D27803120002F0883
:100170003004031DBC28BD28FF285A08D03E2100AA
:10018000C000FF3003180030C10020005908D03EE5
:100190002100C200FF3003180030C300C11BD1286A
:1001A000D228E6284108803ABA0080303A02031D7E
:1001B000DB28043040020318DE28DF28E62821006F
:1001C00040083E3E86008701013081002100C31BAC
:1001D000EA28EB28FF284308803ABA0080303A0228
:1001E000031DF428043042020318F728F828FF28DA
:1001F000210042083E3E86008701013081008631A1
:100200002A268031A72983313123803120002F080D
:100210002100C50020002E082100C400440A031D4F
:100220001629450A0319152916293F2944082000D3
:10023000D1005108500203181E291F2926298F3189
:100240004327803101302000CF00C22950085102DD
:1002500003182B292C2933298F313527803102307F
:100260002000CF00C229210044083E3E86008701BD
:10027000810103302000CF00C401C501C229200044
:100280005008031944294529C2290130BE00C2295A
:10029000200050085106031D4E294F2959298E313F
:1002A000FA268031200050083E3E860087018101F9
:1002B000392983313123803120002F082100BF00EC
:1002C00020002E082100BE003E0A031D6C293F0AB3
:1002D00003196B296C29C2293E082000D100C229CC
:1002E00001302000C4070030C53D00304502C83051
:1002F00003194402031C7D297E29C229833131233D
:10030000803120002F082100BD0020002E08210090
:10031000BC003C0A031D91293D0A0319902991292B
:10032000952904302000CF003C292000CF01C229AC
:1003300001302000C4070030C53D00304502323096
:1003400003194402031CA529A629C22995292000C6
:100350004F082100BA00BB013B08003A0319B1293C
:10036000C2293A08003A03190329013A0319482916
:10037000033A03194829013A03197029073A031966
:100380009829C22901302000C6070030C73D00303F
:1003900047021E3003194602031CCF29D029D92950
:1003A0008131E52180318531402580312000C60131
:1003B000C7011A302100BA00F830890BDD29BA0BC9
:1003C000DD290000A6288031722824308731932748
:1003D000813120005008303E873193278131200041
:1003E0005108303E87319327813120004E08303E3E
:1003F00087319327813164302000B4000030B5008C
:100400004D08BC00BD013C08B6003D08B700843172
:100410008C24813120003408303E8731932781318C
:100420000A302000B4000030B5004D08BC00BD010A
:100430003C08B0003D08B1006430AE000030AF00B1
:1004400085319625813120002F08B7002E08B6008F
:1004500084318C24813120003408303E8731932749
:10046000813120004D08BC00BD013C08B0003D08B2
:10047000B1006430AE000030AF0085319625813187
:1004800020002F082100B90020002E082100B8000C
:100490000A302000AE000030AF00210039082000F3
:1004A000B100210038082000B00085319625813147
:1004B00020002E08303E87319327813164302000A0
:1004C000B4000030B5004C08BC00BD013C08B600CB
:1004D0003D08B70084318C24813120003408303E3F
:1004E0008731932781310A302000B4000030B500F5
:1004F0004C08BC00BD013C08B0003D08B1006430B0
:10050000AE000030AF0085319625813120002F08E4
:10051000B7002E08B60084318C24813120003408C5
:10052000303E8731932781312E30873193278131B7
:1005300020004C08BC00BD013C08B0003D08B100E3
:100540006430AE000030AF00853196258131200047
:100550002F082100B90020002E082100B8000A3021
:100560002000AE000030AF00210039082000B100AB
:10057000210038082000B000853196258131200007
:100580002E08303E87319327813164302000B4003B
:100590000030B5004B08BC00BD013C08B6003D086A
:1005A000B70084318C24813120003408303E8731FB
:1005B000932781310A302000B4000030B5004B0889
:1005C000BC00BD013C08B0003D08B1006430AE0085
:1005D0000030AF0085319625813120002F08B7000B
:1005E0002E08B60084318C24813120003408303E3E
:1005F0008731932781312E30873193278131200035
:100600004B08BC00BD013C08B0003D08B10064309F
:10061000AE000030AF0085319625813120002F08D3
:100620002100B90020002E082100B8000A30200067
:10063000AE000030AF00210039082000B1002100D9
:1006400038082000B00085319625813120002E0821
:10065000303E8731932781310D30873193278131A7
:10066000080020004F08031D362B372B5F2BB101EC
:10067000B201200031083E3E8600870101080319BF
:10068000422B432B482B3208AF003108AE00E22B3F
:100690000130B1070030B23D3208803AB0008030FE
:1006A0003002031D552B04303102031C582B592BEB
:1006B000392BFF302000AE00FF30AF00E22B4F039C
:1006C000031D632B642B992B5008013EB3000030AF
:1006D00003180130B4003408803AB0008030300292
:1006E000031D742B04303302031C772B782B792BDA
:1006F000992B200033083E3E86008701010803192C
:10070000822B832B882B3408AF003308AE00E22BFA
:100710000130B3070030B43D3408803AB000803077
:100720003002031D952B04303302031C982B992BA8
:10073000792B023020004F06031D9F2BA02BBF2BCF
:100740005008FF3EB500FF3003180030B600B61F5A
:10075000AA2BAB2BAC2BBF2B35083E3E8600870166
:1007600001080319B42BB52BBA2B3608AF00350896
:10077000AE00E22BFF30B507FF30B63DA72BB70127
:10078000B801200037083E3E8600870101080319A2
:10079000CA2BCB2BD02B3808AF003708AE00E22B8A
:1007A0000130B7070030B83D3808803AB0008030DB
:1007B0003002031DDD2B04303702031CE02BE12B3C
:1007C000C12B592B08008E317C2683312000AC00D0
:1007D0004A082C02AD002C08CA004E03031DF12B61
:1007E000F22B072C2D08A000A1012008C207210828
:1007F000C33D00304302DD3003194202031C012CCB
:10080000022C242CDC30C2000030C300242C023027
:100810004E06031D0C2C0D2C242C2D08A000A1012C
:1008200021084302031D162C200842020318192C2C
:100830001A2C1D2CC201C301242C2D08A000A101DB
:100840002008C2022108C33B4208F0004308F1001F
:10085000F201F3010030F7000030F6000330F5003C
:100860004530F4008631D826833173082000A70074
:100870007208A6007108A5007008A4000030F300FB
:100880000030F2000330F100E830F0002708F700F4
:100890002608F6002508F5002408F4008431E82431
:1008A000833170082000CD002D08A000A101A20115
:1008B000A3012308F3002208F2002108F100200818
:1008C000F0000030F7000030F6000330F50045304E
:1008D000F4008631D826833173082000AB007208FB
:1008E000AA007108A9007008A8000030F3000030C9
:1008F000F2000030F1006430F0002B08F7002A0805
:10090000F6002908F5002808F4008431E824833132
:1009100070082000CC0008002000B901B51F912C00
:10092000922C992CB409B509B40A0319B50A0130FF
:10093000B900B71F9C2C9D2CA42CB609B709B60A88
:100940000319B70A0130B906BA01BB0134083504EE
:100950000319AB2CAC2CD92C0130B800B62C0130CB
:10096000B435B50D890BB02C0130B807B51FB92CC3
:10097000BA2CAF2C0130BA35BB0D890BBB2C350816
:100980003702031DC52C34083602031CC82CC92CA1
:10099000CE2C3408B6023508B73B3A140130B536D0
:1009A000B40C890BCF2C0130B802031DD82CD92CE4
:1009B000BA2C39080319DD2CDE2CE32CBA09BB094B
:1009C000BA0A0319BB0A3B08B5003A08B40008008C
:1009D0000030FB000030FA000030F9000030F80071
:1009E00073087204710470040319F72CF82C372D66
:1009F0000130FC00042D0130F035F10DF20DF30D46
:100A0000890BFC2C0130FC07F31F072D082DFB2C54
:100A10000130F835F90DFA0DFB0D890B092D73081E
:100A20007702031D1D2D72087602031D1D2D71080E
:100A30007502031D1D2D70087402031C202D212D2D
:100A40002A2D7008F4027108F53B7208F63B730812
:100A5000F73B78140130F336F20CF10CF00C890BF3
:100A60002B2D0130FC02031D362D372D082D7B0860
:100A7000F3007A08F2007908F1007808F000080025
:100A800020005008B0000230B035890B442D3008EA
:100A9000B4004F08B0000230B035890B4C2D30083F
:100AA000B500B601FD30B0008730B1003408300722
:100AB000B2000030313DB3003608320784003308FD
:100AC0000318013E85000008AE003608013E8F3154
:100AD000CA27853101302000B60704303602031CD6
:100AE000722D732D522DB7011930B0008830B1002E
:100AF00035083007B2000030313DB3003708320707
:100B0000840033080318013E85000008AE00370852
:100B1000053E8F31CA27853101302000B7070430E8
:100B20003702031C942D952D742D08002000B3016D
:100B3000B11F9B2D9C2DA32DB009B109B00A03193B
:100B4000B10A0130B300AF1FA62DA72DAC2DAE0901
:100B5000AF09AE0A0319AF0A2E082F040319B12DED
:100B6000B22DD92D0130B200BC2D0130AE35AF0D04
:100B7000890BB62D0130B207AF1FBF2DC02DB52D8B
:100B80002F083102031DC62D2E083002031CC92D6B
:100B9000CA2DCE2D2E08B0022F08B13B0130AF3642
:100BA000AE0C890BCF2D0130B202031DD82DD92DEB
:100BB000C02D33080319DD2DDE2DE32DB009B10959
:100BC000B00A0319B10A3108AF003008AE000800BE
:100BD000210091126A302000AE000630AF008E3145
:100BE000CC26853121001112DF302000AE00073005
:100BF000AF008E31D5268531083023009F0090301C
:100C00009D0024309E0067309B009C0163302000D3
:100C1000AE000E30AF008E31BA2685317030200024
:100C2000AE000E30AF008E31C32685316C3020000F
:100C3000AE000E30AF008E31B12685312000D201DA
:100C4000D701D6010830D500FD01D401D301210020
:100C50009116080020000D182E2E2F2E302ED001B8
:100C60008D19332E342E362E0130D0002200111F64
:100C70003A2E3B2E3E2E02302000D0002200131FC1
:100C8000422E432E462E03302000D00020000D18A7
:100C90004A2E4B2E572E02304E06031D502E512E3B
:100CA000572E8E31FA2686312000CF01CD01220049
:100CB000131F5B2E5C2E692E20004E03031D612E38
:100CC000622E692E8E31FA2686312000CF01B43093
:100CD000CD0008007D08A03E860087018101230029
:100CE0001D1D732E742E7F2E7D08A03E8600870169
:100CF000811421004B088A004A080A00863123002B
:100D00009D1C832E842E8F2E7D08A03E8600870199
:100D10000115210049088A0048080A0086317D082B
:100D2000A03E8600870101080319972E982E9F2E5A
:100D3000210047088A0046080A008631A22E8F311A
:100D4000A227863108002100911122008D14200075
:100D5000B001C12E30080E3E840088300318013ED9
:100D600085000008AE0030080D3E8400883003186E
:100D7000013E850000088F31CA27863102302000ED
:100D8000B0070C303002031CC62EC72EAA2E01302D
:100D9000B100AE0131088F31CA2786310130200001
:100DA000B10709303102031CD62ED72EC92E0800F8
:100DB0000030FB000030FA000030F9000030F8008D
:100DC000701CE32EE42EEC2E7408F8077508F93D2C
:100DD0007608FA3D7708FB3D0130F435F50DF60D48
:100DE000F70D890BED2E0130F336F20CF10CF00CFF
:100DF000890BF42E7308720471047004031D012F13
:100E0000022FE02E7B08F3007A08F2007908F10047
:100E10007808F0000800803022008C008D01373007
:100E200021008C00EF308D00803023008D000B30CE
:100E30008C00093024008D008C0121009513C030F6
:100E400022009D0001309E002700161096111514F7
:100E500095151410941164302000AE000E30AF00D0
:100E60008E318126873165302000AE000E30AF0014
:100E70008E31872687318B1508008731BA27873155
:100E8000243A031D442F452F652F8731BA27873118
:100E90002000B1002F0886008701310881008731CA
:100EA000BA2787312000B100300886008701310859
:100EB00081008731BA2787310D3A031D602F612FDA
:100EC000652F2000AF01B0016A2F01302000AF0074
:100ED0000030B00008008F310427873187310B279D
:100EE00087318E31992687318E31782687318F313F
:100EF0001B2787318E31742687318F31B627873192
:100F00008F318F2787318E31F02687318F310F2730
:100F100087318E31A02687318E31DE2687318531AB
:100F2000E825873108002000AE0055080319992FE5
:100F30009A2F952F2100111A9E2F9F2FA42F20004A
:100F40002E0823009A00B72F111220005708B03E38
:100F5000860087012E0881000130D707083057022C
:100F6000031CB32FB42FB52FD7010130D5022100B8
:100F700011160800200053080319BF2FC02FBA2FE5
:100F80005408A03E860087010108D2005408A83EFC
:100F9000860087010108AE000130D40708305402F2
:100FA000031CD32FD42FD52FD4012100911201304F
:100FB0002000D3022100911620002E0808000830DE
:100FC000200055020318E52FE62FFA2F5608B03EF1
:100FD00086008701010823009A0001302000D6070F
:100FE00008305602031CF52FF62FF72FD6010130DB
:100FF000D507FC2F21001112080000348234FF3481
:101000008034C234A13491348E34423481348934F2
:101010007634073404340434FF34093400340A3499
:1010200000340B3407340C3401340F3401340F34E2
:10103000003400340034003400340034023401340D
:1010400002340034023404340234003440340134B5
:0210500000346A
:101CC60008000800080020009212080020001213E5
:101CD60008008F31A2278E31080023001D121D1621
:101CE60008008A302200970008001630210097006D
:101CF600080020001508F0007008080020002F08D2
:101D0600E0002E08DF00080020002F08DE002E0865
:101D1600DD00080020002F08DC002E08DB0008008C
:101D2600640080010131890B942E00347230210049
:101D360099009801220096010800D33021009E00E8
:101D46009B019C0101309D00080020005308031DE3
:101D5600AD2EAF2E0130B02E0030080020002F0827
:101D66002100C70020002E082100C6000800200020
:101D76002F082100CB0020002E082100CA000800F1
:101D860020002F082100C90020002E082100C800CD
:101D9600080020002F082100CF0020002E08210077
:101DA600CE00080020002F082100D10020002E08B8
:101DB6002100D00008000C3026009300910192010A
:101DC600CF3025009E05080020002F082100CD00F9
:101DD60020002E082100CC00080021001508C0397B
:101DE6003838950020009501D8010B110800003005
:101DF6002000AE00AF008F31E4278E312000CE01E7
:101E06000800403024009400950101309200210022
:101E16000D1224009512080021009212843022002F
:101E26009100E030920020009212210092160800E4
:101E360021001213843022009300E1309400200028
:101E46001213210012170800200091105B085C0491
:101E560003192E2F2F2F342F5C088A005B080A00E7
:101E66008F31080022008C1366302000AE0002304D
:101E7600AF008F31E4278F3102302000CE000800FA
:101E860022008C1766302000AE000230AF008F3182
:101E9600E4278F3101302000CE00080020005F08C3
:101EA60060040319572F582F5D2F60088A005F08BA
:101EB6000A008F3127001610080020005D085E0416
:101EC6000319662F672F6C2F5E088A005D080A00CB
:101ED6008F312700961108002000931021004C082E
:101EE6004D040319772F782F7D2F4D088A004C0853
:101EF6000A008F3108002700161C822F832F862F99
:101F06008F3151278F312700961D8A2F8B2F8E2FC9
:101F16008F3160278F310800FF3020009B009A0127
:101F260091102100911402302000AE000030AF0065
:101F36008E318D268F311C3020009C0008007D08D4
:101F4600A83E860087012300190881000130FD079D
:101F560008307D02031CB02FB12FB22FFD010130D6
:101F66002000D3070800EF302800960095012000D6
:101F760093102100931403302000AE000030AF0010
:101F86008E31E7268F316730280097000800200041
:101F9600AF0022008D1020002F08240091002000A1
:101FA600911DD62FD72FD22F91112E0824009100E4
:101FB6002000911DDF2FE02FDB2F911122008D14C1
:101FC600080020002F08B1002E08B000B136B00C72
:101FD600B136B00C30082600910020002E080339D7
:101FE600B0000430B035890BF52F26001308CF3921
:0A1FF60020003004260093000800CC
:020000040001F9
:04000E00E43FFF3E8E
:00000001FF
