:1000000080317228080008007E1480318B1D092879
:100010000A2812280B1C0D280E2812288E310126C2
:10002000803170280B1F1528162870282100111EFA
:100030001A281B2827282000111E1F2820282728BF
:1000400021005A088A0059080A00803170282100CE
:10005000911E2B282C2838282000911E302831286A
:100060003828210058088A0057080A008031702873
:100070002100121F3C283D2846282000121F41283D
:10008000422846288C31E224803170282100921EBB
:100090004A284B2854282000921E4F2850285428C4
:1000A0008C31DF24803170282100931C5828592876
:1000B00062282000931C5D285E2862288D31F2257D
:1000C000803170282100911C662867287028200044
:1000D000911C6B286C2870288D31E32580317028A5
:1000E0007E10090080317428FD012030840000302A
:1000F000850024308C31FA248031A0308400003017
:1001000085001A308C31FA2480317E102000803135
:1001100089288E31EA26803123008D0121008D103F
:1001200022008D148B1185302000D6000330D700BB
:100130008D31692580318B170B1724009512951688
:100140008D317C25803187317A2780318D310F25A3
:100150008031003A0319AD28AE282B294330200006
:10016000D7004230D8008F316D27803120005708EA
:100170005804031DBC28BD282B294308D03E21006C
:10018000C900FF3003180030CA0020004208D03EEA
:100190002100CB00FF3003180030CC00CA1BD1284F
:1001A000D2282B294A08803AC40080304402031D1B
:1001B000DB28043049020318DE28DF282B29210020
:1001C000CC1BE328E4282B294C08803AC40080305B
:1001D0004402031DED2804304B020318F028F128D7
:1001E0002B2921004A08803AC4004C08803A440276
:1001F000031DFC284B0849020318FF2800290E297B
:1002000021004908243E86008701013081004B0807
:10021000243E86008701013081002B2921004C08F3
:10022000803AC4004A08803A4402031D192949084B
:100230004B0203181C291D292B2921004908203EA7
:1002400086008701013081004B08203E860087012F
:10025000013081002B29863188268031DE2920005B
:100260003908243E860087010108031938293929F5
:1002700042298F313F27803103302000BA00B0017E
:10028000B101F9293908203E8600870101080319C8
:100290004A294B294C29392939088631C826803109
:1002A000003A0319542955295C298D31B72580312D
:1002B00001302000BA00F929200039088F311227B7
:1002C0008031003A0319652966296D298D31A925E8
:1002D000803102302000BA00F929200039080319C2
:1002E0007229732976290130A000F929F929200003
:1002F0003908243E860087010108031980298129D5
:1003000085298D317C258031392939088631C826E7
:100310008031003A031D8D298E29F92920003908E2
:10032000203E8600870101080319972998299929F9
:1003300081298D317C2580312000BA01F9292000E6
:100340003908203E8600870101080319A829A92938
:10035000AA29812939088F3112278031003A031DDB
:10036000B229B329F92920003908243E86008701E3
:1003700001080319BC29BD299929812901302000D0
:10038000B0070030B13D00303102C83003193002EF
:10039000031CCB29CC29F9290430BA003F290130AC
:1003A0002000B0070030B13D003031023230031977
:1003B0003002031CDC29DD29F9299C2920003A0898
:1003C0002100C400C5014508003A0319E829F929AC
:1003D0004408003A03192F29013A03197729033AEF
:1003E00003199F29013A0319BE29073A0319CF2996
:1003F000F92901302000B2070030B33D003033024C
:100400001E3003193202031C062A072A462A8231AB
:10041000522280312100C701C80101302100C600ED
:100420004708243E860087010108031D182A192A5F
:10043000232A4708203E860087010108031D212A40
:10044000222A232AC6014708283E8600870146083B
:10045000031D2B2A2D2A01302E2A00308100013065
:10046000C7070030C83D4808803AC40080304402C5
:10047000031D3C2A04304702031C3F2A402A0D2A50
:100480008431682480312000B201B3011A30210088
:10049000C400F830890B4A2AC40B4A2A0000A62857
:1004A0008031722824308E31C326823120003908F1
:1004B000303E8E31C32682312C308E31C3268231BC
:1004C00020003808303E8E31C32682312C308E31E8
:1004D000C326823120003708303E8E31C326823158
:1004E0002C308E31C326823164302100BA000030B6
:1004F000BB00200036082100C200C3014208BC0036
:100500004308BD008431F824823121003A08303E8E
:100510008E31C32682310A302100BA000030BB0080
:10052000200036082100C200C30142082000D80084
:10053000210043082000D9006430D6000030D700E5
:100540008531AC258231200057082100BD002000F4
:1005500056082100BC008431F824823121003A0879
:10056000303E8E31C32682310A302000D600003062
:10057000D70036082100C200C30142082000D8007D
:10058000210043082000D9008531AC2582312000AC
:100590005608303E8E31C32682312C308E31C32630
:1005A000823164302100BA000030BB0020003508E1
:1005B0002100C200C3014208BC004308BD008431D1
:1005C000F824823121003A08303E8E31C326823130
:1005D0000A302100BA000030BB002000350821009D
:1005E000C200C30142082000D800210043082000B7
:1005F000D9006430D6000030D7008531AC25823177
:10060000200057082100BD00200056082100BC0032
:100610008431F824823121003A08303E8E31C326DD
:1006200082312E308E31C32682310A302000D6002E
:100630000030D70035082100C200C3014208200065
:10064000D800210043082000D9008531AC25823133
:1006500020005608303E8E31C32682312C308E3138
:10066000C326823164302100BA000030BB00200074
:100670002F082100BD0020002E082100BC0085317C
:10068000FE25823121003A08303E8E31C326823168
:100690000A302100BA000030BB0020002F08D9002A
:1006A0002E08D8006430D6000030D7008731AF273D
:1006B0008231200057082100BD002000560821008B
:1006C000BC008531FE25823121003A08303E8E3152
:1006D000C32682312E308E31C32682310A3020006B
:1006E000D6000030D7002F08D9002E08D800873157
:1006F000AF27823120005608303E8E31C32682312A
:100700000D308E31C326823108008C31F5248331BF
:100710002000D20034085202D5005208B40037033A
:10072000031D932B942BA92B5508C400C501440825
:10073000AC074508AD3D00302D02DD3003192C0219
:10074000031CA32BA42BC62BDC30AC000030AD0067
:10075000C62B02303706031DAE2BAF2BC62B550818
:10076000C400C50145082D02031DB82B44082C0206
:100770000318BB2BBC2BBF2BAC01AD01C62B5508FE
:10078000C400C5014408AC024508AD3B2C08F0008C
:100790002D08F100F201F3010030F7000030F600FF
:1007A0000330F5004530F4008F31CD2783317308D5
:1007B0002000CB007208CA007108C9007008C80088
:1007C0000030F3000030F2000330F100E830F000B8
:1007D0004B08F7004A08F6004908F5004808F400FD
:1007E00085315425833170082000B6005508C400B7
:1007F000C501C601C7014708F3004608F2004508D5
:10080000F1004408F0000030F7000030F60003303B
:10081000F5004530F4008F31CD2783317308200077
:10082000CF007208CE007108CD007008CC000030F7
:10083000F3000030F2000030F1006430F0004F08A7
:10084000F7004E08F6004D08F5004C08F40085311D
:100850005425833170082000B500D301D401D001A4
:10086000D10102308E316726833120005308700792
:10087000D3005408713DD4002130890B3D2C000079
:1008800001302000D0070030D13D5108803AC4002B
:1008900080304402031D4E2C0A305002031C512CA0
:1008A000522C312C0A30F0000030F10020005408A6
:1008B000F3005308F20087310727833171082000C5
:1008C000D4007008D3005408AF005308AE000800ED
:1008D00020003908D8000230D835890B6C2C580814
:1008E0002100BA0020003A08D8000230D835890B20
:1008F000762C58082100BC00BD0114302000D8001F
:100900008830D90021003A0820005807DA0000306A
:10091000593DDB0021003D0820005A0784005B0898
:100920000318013E85000008D60021003D08013E65
:100930008E314D26843101302100BD0704303D0247
:10094000031CA32CA42C7D2CBE0100302000D80059
:100950008830D90021003C0820005807DA00003018
:10096000593DDB0021003E0820005A0784005B0847
:100970000318013E85000008D60021003E08053E10
:100980008E314D26843101302100BE0704303E02F5
:10099000031CCB2CCC2CA52C3C08033E84008830B7
:1009A0000318013E85000008BB00BF013F08283E38
:1009B0008600870101080319DE2CDF2CE82C3F0894
:1009C000303E840088300318013E85000008BB07D4
:1009D0000130BF0704303F02031CEF2CF02CD62C53
:1009E0003B082000D60008308E314D2684310800A7
:1009F0002100BF01BB1FFD2CFE2C052DBA09BB0930
:100A0000BA0A0319BB0A0130BF00BD1F082D092D0A
:100A1000102DBC09BD09BC0A0319BD0A0130BF066F
:100A2000C001C1013A083B040319172D182D452DAB
:100A30000130BE00222D0130BA35BB0D890B1C2DB3
:100A40000130BE07BB1F252D262D1B2D0130C035C3
:100A5000C10D890B272D3B083D02031D312D3A089E
:100A60003C02031C342D352D3A2D3A08BC023B08BC
:100A7000BD3B40140130BB36BA0C890B3B2D013015
:100A8000BE02031D442D452D262D3F080319492D77
:100A90004A2D4F2DC009C109C00A0319C10A4108D6
:100AA000BB004008BA0008000030FB000030FA002C
:100AB0000030F9000030F80073087204710470040B
:100AC0000319632D642DA32D0130FC00702D01301E
:100AD000F035F10DF20DF30D890B682D0130FC0797
:100AE000F31F732D742D672D0130F835F90DFA0DB4
:100AF000FB0D890B752D73087702031D892D720874
:100B00007602031D892D71087502031D892D700859
:100B10007402031C8C2D8D2D962D7008F402710823
:100B2000F53B7208F63B7308F73B78140130F33657
:100B3000F20CF10CF00C890B972D0130FC02031D17
:100B4000A22DA32D742D7B08F3007A08F2007908FA
:100B5000F1007808F00008002000DB01D91FB12D5A
:100B6000B22DB92DD809D909D80A0319D90A0130EB
:100B7000DB00D71FBC2DBD2DC22DD609D709D60A43
:100B80000319D70A560857040319C72DC82DEF2D8E
:100B90000130DA00D22D0130D635D70D890BCC2D9E
:100BA0000130DA07D71FD52DD62DCB2D5708590286
:100BB000031DDC2D56085802031CDF2DE02DE42D0B
:100BC0005608D8025708D93B0130D736D60C890BC6
:100BD000E52D0130DA02031DEE2DEF2DD62D5B0839
:100BE0000319F32DF42DF92DD809D909D80A0319C1
:100BF000D90A5908D7005808D60008002000DC019F
:100C0000DD0121003A083B040319072E082E3D2E72
:100C100001302000DB00142E0130BA35BB0D890BEA
:100C20000D2E01302000DB072100BB1F182E192ECE
:100C30000C2E01302000DC35DD0D890B1B2E210030
:100C40003B083D02031D262E3A083C02031C292EB8
:100C50002A2E302E3A08BC023B08BD3B20005C1413
:100C600001302100BB36BA0C890B322E0130200036
:100C7000DB02031D3C2E3D2E192E20005D082100B5
:100C8000BB0020005C082100BA000800210091127E
:100C900041302000D6000730D7008D313325863112
:100CA00021001112E2302000D6000730D7008D312C
:100CB0003C258631083023009F0090309D00243071
:100CC0009E0067309B009C01DC302000D6000C3079
:100CD000D7008D3121258631E9302000D6000C3037
:100CE000D7008D312A258631E5302000D6000C3022
:100CF000D7008D31182586312000BB01C001BF010E
:100D00000830BE00FD01BD01BC01210091160800A4
:100D100020000D188C2E8D2E8E2EB9018D19912E3E
:100D2000922E942E0130B9002200111F982E992E78
:100D30009C2E02302000B9002200131FA02EA12EED
:100D4000A42E03302000B90020000D18A82EA92ED3
:100D5000B52E02303706031DAE2EAF2EB52E8D31C7
:100D60007C2586312000BA01B6012200131FB92E5E
:100D7000BA2EC72E20003703031DBF2EC02EC72E4C
:100D80008D317C2586312000BA01B430B6000800D0
:100D90002000D7005708013ED8000030031801306A
:100DA000D9005908803AD60080305602031DDA2E49
:100DB00004305802031CDD2EDE2EDF2E052F20000E
:100DC0005808243E860087010108031DE82EE92EFD
:100DD000F22E5808203E8600870101080319F12EE3
:100DE000F22EF42E0130062F0130D8070030D93D05
:100DF0005908803AD60080305602031D012F043076
:100E00005802031C042F052FDF2E00300800F401C8
:100E1000F5017008710403190E2F0F2F3C2F0130BC
:100E2000F600192F0130F035F10D890B132F013029
:100E3000F607F11F1C2F1D2F122F0130F435F50D71
:100E4000890B1E2F71087302031D282F7008720270
:100E5000031C2B2F2C2F312F7008F2027108F33B4B
:100E600074140130F136F00C890B322F0130F60288
:100E7000031D3B2F3C2F1D2F7508F1007408F00057
:100E800008007D08A03E86008701810123001D1D0A
:100E90004A2F4B2F562F7D08A03E860087018114D4
:100EA000210052088A0051080A00873123009D1C46
:100EB0005A2F5B2F662F7D08A03E86008701011503
:100EC000210050088A004F080A0087317D08A03EA3
:100ED00086008701010803196E2F6F2F762F2100DE
:100EE0004E088A004D080A008731792F8E31252659
:100EF000873108002100911122008D142000D801B3
:100F0000982F5808253E840088300318013E85003C
:100F10000008D6005808243E840088300318013E9B
:100F2000850000088E314D26873102302000D80719
:100F30000C305802031C9D2F9E2F812F0130D900A9
:100F4000D60159088E314D26873101302000D9074E
:100F500009305902031CAD2FAE2FA02F080020002E
:100F6000560857040319B52FB62FDD2F0130DA00CC
:100F7000C02F0130D635D70D890BBA2F0130DA07D3
:100F8000D71FC32FC42FB92F57085902031DCA2FCB
:100F900056085802031CCD2FCE2FD22F5608D80248
:100FA0005708D93B0130D736D60C890BD32F0130E7
:100FB000DA02031DDC2FDD2FC42F5908D700580893
:100FC000D6000800083020003E020318E82FE92F61
:100FD000FD2F3F08B03E86008701010823009A00DC
:100FE00001302000BF0708303F02031CF82FF92F03
:100FF000FA2FBF010130BE07FF2F21001112080098
:101000000034003400340034003402340434023438
:101010000034023401340234003402340234023425
:10102000003402340234023400340134FF344134D9
:1010300071348934853443346E349134813442348C
:10104000FF3410341034F034093400340A340034DE
:101050000B3407340C3401340F3401340F340034B2
:1010600010342034403480340034403401340034AF
:1019B80008000800080020009212080020001213F6
:1019C80008008E3125268C31080023001D121D16B3
:1019D8000800853022009700080016302100970083
:1019E800080020001508F000700808006400800155
:1019F8000131890BFB2C00347230210099009801C9
:101A0800220096010800D33021009E009B019C0112
:101A180001309D00080020003C08031D142D162DE0
:101A28000130172D00300800200057082100CE0093
:101A3800200056082100CD0008002000570821008A
:101A4800D200200056082100D100080020005708C5
:101A58002100D000200056082100CF0008002000F7
:101A680057082100D800200056082100D700080098
:101A7800200057082100DA00200056082100D9006C
:101A88000800200057082100DE0020005608210029
:101A9800DD000800200057082100DC00200056085F
:101AA8002100DB0008000C30260093009101920110
:101AB800CF3025009E050800200057082100D600D9
:101AC800200056082100D5000800200057082100F2
:101AD800D400200056082100D30008002100150872
:101AE800C0393838950020009501C1010B11080054
:101AF80000302000D600D7008E3182268D3120009C
:101B0800B70108004030240094009501013092008C
:101B180021000D1224009512080021009212843031
:101B280022009100E03092002000921221009216CB
:101B3800080021001213843022009300E130940041
:101B48002000121321001217080022008C1366309F
:101B58002000D6000230D7008E3182268D31023027
:101B68002000B700080022008C1766302000D6003D
:101B78000230D7008E3182268D3101302000B70027
:101B8800080021005D085E040319CB2DCC2DD12D52
:101B98005E088A005D080A008D31270016100800CB
:101BA80021005B085C040319DA2DDB2DE02D5C08AD
:101BB8008A005B080A008D31270096110800200072
:101BC80091102100550856040319EB2DEC2DF12D29
:101BD80056088A0055080A008D3108002000931025
:101BE8002100530854040319FA2DFB2D002E540824
:101BF8008A0053080A008D3108002700161C052E9C
:101C0800062E092E8D31C5258E312700961D0D2EE5
:101C18000E2E112E8D31D4258E310800FF30200074
:101C28009B009A0191102100911402302000D600E7
:101C38000030D7008D3160258E311C3020009C008B
:101C480008007D08A83E8600870123001908810046
:101C58000130FD0708307D02031C332E342E352E4B
:101C6800FD0101302000BC070800EF302800960075
:101C78009501200093102100931403302000D60012
:101C88000030D7008D3169258E31673028009700E4
:101C980008002000D70022008D10200057082400DB
:101CA80091002000911D592E5A2E552E911156083B
:101CB800240091002000911D622E632E5E2E91114A
:101CC80022008D140800F3007308F200F20DF20DE3
:101CD80021001D087206833972069D001D14033009
:101CE800890B742E000021009D149D187C2E7D2EDA
:101CF800792E1C08F1001B08F00008002000570886
:101D0800D9005608D800D936D80CD936D80C580876
:101D180026009100200056080339D8000430D83531
:101D2800890B932E26001308CF392000580426006B
:101D38009300080020003C080319A32EA42E9E2E11
:101D48003D08A03E860087010108BB003D08A83E6B
:101D5800860087010108D6000130BD0708303D0222
:101D6800031CB72EB82EB92EBD01210091120130E7
:101D78002000BC022100911620005608080020000F
:101D8800D6003E080319C92ECA2EC52E2100111AE5
:101D9800CE2ECF2ED42E2000560823009A00E72EF0
:101DA800111220004008B03E8600870156088100C5
:101DB8000130C00708304002031CE32EE42EE52E54
:101DC800C0010130BE022100111608008D318625A0
:101DD8008E318F319B278E318D3100258E318C319C
:101DE800F1248E318D319D258E318C31ED248E314B
:101DF8008E3139268E318E3112268E318D317225F3
:101E08008E318D3191258E318D3107258E318D3171
:101E180057258E31863146268E3108002000D7009E
:101E2800D801D901302F20005808243E86008701A8
:101E38000108031D202F212F2A2F5808203E860035
:101E4800870101080319292F2A2F2C2F01303E2F33
:101E58000130D8070030D93D5908803AD600803083
:101E68005602031D392F57085802031C3C2F3D2FDB
:101E7800172F0030080020003A030319442F452F7C
:101E88004A2F3A08031D492F4A2F4F2F3908243E5D
:101E980086008701810102303A060319542F552F15
:101EA8005A2F3A08031D592F5A2F5F2F3908203E01
:101EB80086008701810103303906031D642F652FD1
:101EC800662FA7013908031D6A2F6B2F6C2FA001FD
:101ED80008008E319E268F31243A031D742F752FEA
:101EE800952F8E319E268F312000D9005708860005
:101EF8008701590881008E319E268F312000D90034
:101F0800580886008701590881008E319E268F3136
:101F18000D3A031D902F912F952F2000D701D8013E
:101F28009A2F01302000D7000030D80008008030F8
:101F380022008C008D01373021008C00EF308D009D
:101F4800803023008D000F308C00093024008D0074
:101F58008C0121009513C03022009D0001309E00A5
:101F68002700161096111514951514109411DD30CC
:101F78002000D6000C30D7008D3145258F31DE305A
:101F88002000D6000C30D7008D314E258F318B15AF
:101F980008000030FB000030FA000030F900003083
:101FA800F800701CD82FD92FE12F7408F80775088E
:101FB800F93D7608FA3D7708FB3D0130F435F50D1B
:101FC800F60DF70D890BE22F0130F336F20CF10C08
:101FD800F00C890BE92F7308720471047004031D57
:101FE800F62FF72FD52F7B08F3007A08F20079082F
:081FF800F1007808F000080078
:020000040001F9
:04000E00E43FFF3E8E
:00000001FF
